{
  "contractName": "Todo",
  "abi": [
    {
      "inputs": [],
      "stateMutability": "nonpayable",
      "type": "constructor"
    },
    {
      "anonymous": false,
      "inputs": [
        {
          "indexed": false,
          "internalType": "uint256",
          "name": "id",
          "type": "uint256"
        },
        {
          "indexed": false,
          "internalType": "bool",
          "name": "completed",
          "type": "bool"
        }
      ],
      "name": "TaskCompleted",
      "type": "event"
    },
    {
      "anonymous": false,
      "inputs": [
        {
          "indexed": false,
          "internalType": "uint256",
          "name": "id",
          "type": "uint256"
        },
        {
          "indexed": false,
          "internalType": "string",
          "name": "content",
          "type": "string"
        },
        {
          "indexed": false,
          "internalType": "bool",
          "name": "completed",
          "type": "bool"
        }
      ],
      "name": "TaskCreated",
      "type": "event"
    },
    {
      "inputs": [],
      "name": "count",
      "outputs": [
        {
          "internalType": "uint256",
          "name": "",
          "type": "uint256"
        }
      ],
      "stateMutability": "view",
      "type": "function",
      "constant": true
    },
    {
      "inputs": [
        {
          "internalType": "uint256",
          "name": "",
          "type": "uint256"
        }
      ],
      "name": "tasks",
      "outputs": [
        {
          "internalType": "uint256",
          "name": "id",
          "type": "uint256"
        },
        {
          "internalType": "string",
          "name": "content",
          "type": "string"
        },
        {
          "internalType": "bool",
          "name": "completed",
          "type": "bool"
        }
      ],
      "stateMutability": "view",
      "type": "function",
      "constant": true
    },
    {
      "inputs": [
        {
          "internalType": "string",
          "name": "_content",
          "type": "string"
        }
      ],
      "name": "createTask",
      "outputs": [],
      "stateMutability": "nonpayable",
      "type": "function"
    },
    {
      "inputs": [
        {
          "internalType": "uint256",
          "name": "_id",
          "type": "uint256"
        }
      ],
      "name": "checkTask",
      "outputs": [],
      "stateMutability": "nonpayable",
      "type": "function"
    }
  ],
  "bytecode": "0x6080604052600080553480156200001557600080fd5b50620000656040518060400160405280600981526020017f54657374205461736b00000000000000000000000000000000000000000000008152506200006b640100000000026401000000009004565b620003f9565b6000808154809291906200007f9062000230565b919050555060405180606001604052806000548152602001828152602001600015158152506001600080548152602001908152602001600020600082015181600001556020820151816001019080519060200190620000e092919062000147565b5060408201518160020160006101000a81548160ff0219169083151502179055509050507f05d0fb833127fc08168556d0e7ca9554fc3f6bc843b3b7d2bf1c35aea6bab6606000548260006040516200013c9392919062000350565b60405180910390a150565b8280546200015590620003c3565b90600052602060002090601f016020900481019282620001795760008555620001c5565b82601f106200019457805160ff1916838001178555620001c5565b82800160010185558215620001c5579182015b82811115620001c4578251825591602001919060010190620001a7565b5b509050620001d49190620001d8565b5090565b5b80821115620001f3576000816000905550600101620001d9565b5090565b7f4e487b7100000000000000000000000000000000000000000000000000000000600052601160045260246000fd5b6000819050919050565b60006200023d8262000226565b91507fffffffffffffffffffffffffffffffffffffffffffffffffffffffffffffffff821415620002735762000272620001f7565b5b600182019050919050565b620002898162000226565b82525050565b600081519050919050565b600082825260208201905092915050565b60005b83811015620002cb578082015181840152602081019050620002ae565b83811115620002db576000848401525b50505050565b6000601f19601f8301169050919050565b6000620002ff826200028f565b6200030b81856200029a565b93506200031d818560208601620002ab565b6200032881620002e1565b840191505092915050565b60008115159050919050565b6200034a8162000333565b82525050565b60006060820190506200036760008301866200027e565b81810360208301526200037b8185620002f2565b90506200038c60408301846200033f565b949350505050565b7f4e487b7100000000000000000000000000000000000000000000000000000000600052602260045260246000fd5b60006002820490506001821680620003dc57607f821691505b60208210811415620003f357620003f262000394565b5b50919050565b61090a80620004096000396000f3fe608060405234801561001057600080fd5b5060043610610069576000357c01000000000000000000000000000000000000000000000000000000009004806306661abd1461006e578063111002aa1461008c5780638d977672146100a8578063974e5d6d146100da575b600080fd5b6100766100f6565b60405161008391906104da565b60405180910390f35b6100a660048036038101906100a1919061064f565b6100fc565b005b6100c260048036038101906100bd91906106c4565b6101d2565b6040516100d193929190610794565b60405180910390f35b6100f460048036038101906100ef91906106c4565b610291565b005b60005481565b60008081548092919061010e90610801565b91905055506040518060600160405280600054815260200182815260200160001515815250600160008054815260200190815260200160002060008201518160000155602082015181600101908051906020019061016d92919061041e565b5060408201518160020160006101000a81548160ff0219169083151502179055509050507f05d0fb833127fc08168556d0e7ca9554fc3f6bc843b3b7d2bf1c35aea6bab6606000548260006040516101c793929190610794565b60405180910390a150565b60016020528060005260406000206000915090508060000154908060010180546101fb90610879565b80601f016020809104026020016040519081016040528092919081815260200182805461022790610879565b80156102745780601f1061024957610100808354040283529160200191610274565b820191906000526020600020905b81548152906001019060200180831161025757829003601f168201915b5050505050908060020160009054906101000a900460ff16905083565b600060016000838152602001908152602001600020604051806060016040529081600082015481526020016001820180546102cb90610879565b80601f01602080910402602001604051908101604052809291908181526020018280546102f790610879565b80156103445780601f1061031957610100808354040283529160200191610344565b820191906000526020600020905b81548152906001019060200180831161032757829003601f168201915b505050505081526020016002820160009054906101000a900460ff161515151581525050905080604001511581604001901515908115158152505080600160008481526020019081526020016000206000820151816000015560208201518160010190805190602001906103b992919061041e565b5060408201518160020160006101000a81548160ff0219169083151502179055509050507fe21fa966ca5cd02748c0752352d18c48165e61cb55b4c29cccf924b5a95fcff18282604001516040516104129291906108ab565b60405180910390a15050565b82805461042a90610879565b90600052602060002090601f01602090048101928261044c5760008555610493565b82601f1061046557805160ff1916838001178555610493565b82800160010185558215610493579182015b82811115610492578251825591602001919060010190610477565b5b5090506104a091906104a4565b5090565b5b808211156104bd5760008160009055506001016104a5565b5090565b6000819050919050565b6104d4816104c1565b82525050565b60006020820190506104ef60008301846104cb565b92915050565b6000604051905090565b600080fd5b600080fd5b600080fd5b600080fd5b6000601f19601f8301169050919050565b7f4e487b7100000000000000000000000000000000000000000000000000000000600052604160045260246000fd5b61055c82610513565b810181811067ffffffffffffffff8211171561057b5761057a610524565b5b80604052505050565b600061058e6104f5565b905061059a8282610553565b919050565b600067ffffffffffffffff8211156105ba576105b9610524565b5b6105c382610513565b9050602081019050919050565b82818337600083830152505050565b60006105f26105ed8461059f565b610584565b90508281526020810184848401111561060e5761060d61050e565b5b6106198482856105d0565b509392505050565b600082601f83011261063657610635610509565b5b81356106468482602086016105df565b91505092915050565b600060208284031215610665576106646104ff565b5b600082013567ffffffffffffffff81111561068357610682610504565b5b61068f84828501610621565b91505092915050565b6106a1816104c1565b81146106ac57600080fd5b50565b6000813590506106be81610698565b92915050565b6000602082840312156106da576106d96104ff565b5b60006106e8848285016106af565b91505092915050565b600081519050919050565b600082825260208201905092915050565b60005b8381101561072b578082015181840152602081019050610710565b8381111561073a576000848401525b50505050565b600061074b826106f1565b61075581856106fc565b935061076581856020860161070d565b61076e81610513565b840191505092915050565b60008115159050919050565b61078e81610779565b82525050565b60006060820190506107a960008301866104cb565b81810360208301526107bb8185610740565b90506107ca6040830184610785565b949350505050565b7f4e487b7100000000000000000000000000000000000000000000000000000000600052601160045260246000fd5b600061080c826104c1565b91507fffffffffffffffffffffffffffffffffffffffffffffffffffffffffffffffff82141561083f5761083e6107d2565b5b600182019050919050565b7f4e487b7100000000000000000000000000000000000000000000000000000000600052602260045260246000fd5b6000600282049050600182168061089157607f821691505b602082108114156108a5576108a461084a565b5b50919050565b60006040820190506108c060008301856104cb565b6108cd6020830184610785565b939250505056fea2646970667358221220e2addf8cceea31028485e1c02f753fddee91fa80b4a4d3e069711dcd008a993464736f6c634300080b0033",
  "immutableReferences": {},
  "source": "// SPDX-License-Identifier: MIT\npragma solidity >=0.4.22 <0.9.0;\n\ncontract Todo {\n  uint public count = 0;\n\n  struct Task {\n    uint id;\n    string content;\n    bool completed;\n  }\n\n  mapping(uint => Task) public tasks;\n\n  event TaskCreated(\n    uint id,\n    string content,\n    bool completed\n  );\n\n  event TaskCompleted(\n    uint id,\n    bool completed\n  );\n\n  constructor() public {\n    createTask(\"Test Task\");\n  }\n\n  function createTask(string memory _content) public {\n    count ++;\n    tasks[count] = Task(count, _content, false);\n    emit TaskCreated(count, _content, false);\n  }\n\n  function checkTask(uint _id) public {\n    Task memory _task = tasks[_id];\n    _task.completed = !_task.completed;\n    tasks[_id] = _task;\n    emit TaskCompleted(_id, _task.completed);\n  }\n}",
  "sourcePath": "/Users/wertalp/Code/react-code/truffle-todo/contracts/Todo.sol",
  "compiler": {
    "name": "solc",
    "version": "0.8.11+commit.d7f03943.Emscripten.clang"
  },
  "schemaVersion": "3.4.5",
  "updatedAt": "2022-03-13T18:16:36.807Z",
  "networkType": "ethereum",
  "devdoc": {
    "kind": "dev",
    "methods": {},
    "version": 1
  },
  "userdoc": {
    "kind": "user",
    "methods": {},
    "version": 1
  }
}